{
  "contractName": "Pay2Recycle",
  "abi": [
    {
      "inputs": [
        {
          "internalType": "address",
          "name": "",
          "type": "address"
        }
      ],
      "name": "users",
      "outputs": [
        {
          "internalType": "address",
          "name": "userAddress",
          "type": "address"
        },
        {
          "internalType": "uint256",
          "name": "rewardPoints",
          "type": "uint256"
        }
      ],
      "stateMutability": "view",
      "type": "function"
    },
    {
      "inputs": [
        {
          "internalType": "address",
          "name": "_user",
          "type": "address"
        },
        {
          "internalType": "uint256",
          "name": "_points",
          "type": "uint256"
        }
      ],
      "name": "logRecycling",
      "outputs": [],
      "stateMutability": "nonpayable",
      "type": "function"
    },
    {
      "inputs": [
        {
          "internalType": "address",
          "name": "_user",
          "type": "address"
        }
      ],
      "name": "getRewardPoints",
      "outputs": [
        {
          "internalType": "uint256",
          "name": "",
          "type": "uint256"
        }
      ],
      "stateMutability": "view",
      "type": "function"
    }
  ],
  "bytecode": "0x608060405234801561001057600080fd5b5061024b806100206000396000f3fe608060405234801561001057600080fd5b50600436106100415760003560e01c80633b659df114610046578063a87430ba1461005b578063fd67508d146100b2575b600080fd5b6100596100543660046101a2565b6100ec565b005b61008e6100693660046101cc565b600060208190529081526040902080546001909101546001600160a01b039091169082565b604080516001600160a01b0390931683526020830191909152015b60405180910390f35b6100de6100c03660046101cc565b6001600160a01b031660009081526020819052604090206001015490565b6040519081526020016100a9565b6001600160a01b0382811660009081526020819052604090205416610152576040805180820182526001600160a01b038481168083526000602080850182815292825281905293909320915182546001600160a01b031916911617815590516001909101555b6001600160a01b0382166000908152602081905260408120600101805483929061017d9084906101ee565b90915550505050565b80356001600160a01b038116811461019d57600080fd5b919050565b600080604083850312156101b557600080fd5b6101be83610186565b946020939093013593505050565b6000602082840312156101de57600080fd5b6101e782610186565b9392505050565b8082018082111561020f57634e487b7160e01b600052601160045260246000fd5b9291505056fea26469706673582212204728645f20d17097f5aa661e441a32f14fae3fcc8a44f884cb347dd4b4bc90c664736f6c63430008130033",
  "immutableReferences": {},
  "source": "// SPDX-License-Identifier: MIT\r\npragma solidity ^0.8.0;\r\n\r\ncontract Pay2Recycle {\r\n    struct User {\r\n        address userAddress;\r\n        uint rewardPoints;\r\n    }\r\n\r\n    mapping(address => User) public users;\r\n\r\n    function logRecycling(address _user, uint _points) public {\r\n        if (users[_user].userAddress == address(0)) {\r\n            users[_user] = User(_user, 0);\r\n        }\r\n        users[_user].rewardPoints += _points;\r\n    }\r\n\r\n    function getRewardPoints(address _user) public view returns (uint) {\r\n        return users[_user].rewardPoints;\r\n    }\r\n}\r\n",
  "sourcePath": "C:\\Users\\Saptarshi\\Desktop\\hackathon defy2025\\pay2recycle\\contracts\\Pay2Recycle.sol",
  "compiler": {
    "name": "solc",
    "version": "0.8.19+commit.7dd6d404.Emscripten.clang"
  },
  "schemaVersion": "3.4.16",
  "updatedAt": "2024-12-23T12:47:20.545Z",
  "devdoc": {
    "kind": "dev",
    "methods": {},
    "version": 1
  },
  "userdoc": {
    "kind": "user",
    "methods": {},
    "version": 1
  }
}